:100000000C9434000C9446000C9446000C9446006A
:100010000C9446000C9446000C9446000C94460048
:100020000C9446000C9446000C9446000C94460038
:100030000C9446000C9446000C9446000C94460028
:100040000C9446000C9446000C9446000C94460018
:100050000C9446000C9446000C9446000C94460008
:100060000C9446000C94460011241FBECFEFD8E03C
:10007000DEBFCDBF21E0A0E0B1E001C01D92A630FF
:10008000B207E1F70E946C000C94A3000C940000EE
:10009000CF93DF9300D0CDB7DEB79A83898385EC09
:1000A00090E029813A81232F3327FC01208384ECBF
:1000B00090E02981FC01208381EC90E020E1FC01AB
:1000C000208382EC90E026E0FC01208300000F906A
:1000D0000F90DF91CF910895CF93DF93CDB7DEB727
:1000E00087E690E00E94480080910201893098F4F0
:1000F0008091000191E0980F90930001882F90E08B
:10010000209103018B5F9E4FFC01208380910201AF
:100110008F5F8093020180910201882329F38091EF
:10012000010191E0980F90930101882F90E08B5F7F
:100130009E4FFC01808180930401809102018150D7
:0A01400080930201D1CFF894FFCFA5
:00000001FF
