S01100006861726B6B61372E312E737265630B
S11300000C9434000C9446000C9446000C94460066
S11300100C9446000C9446000C9446000C94460044
S11300200C9446000C9446000C9446000C94460034
S11300300C9446000C9446000C9446000C94460024
S11300400C9448000C9446000C9446000C94460012
S11300500C9446000C9446000C9446000C94460004
S11300600C9446000C94460011241FBECFEFD8E038
S1130070DEBFCDBF21E0A0E0B1E001C01D92A430FD
S1130080B207E1F70E9476000C94AD000C940000D6
S11300901F920F9200905F000F9211248F939F93F1
S11300A0AF93BF93CF93DF93CDB7DEB780910001B9
S11300B090910101A0910201B09103010196A11D4B
S11300C0B11D8093000190930101A0930201B093AC
S11300D003010000DF91CF91BF91AF919F918F9168
S11300E00F9000925F000F901F901895CF93DF93AD
S11300F0CDB7DEB784E290E024E230E0F90120815C
S11301002062FC01208385E490E025E430E0F901DD
S113011020812560FC0120838EE690E02EE630E00D
S1130120F90120812160FC012083789480910001F1
S113013090910101A0910201B0910301833794468B
S1130140A241B10598F385E290E025E230E0F9019F
S111015020812062FC012083FFCFF894FFCFB2
S9030000FC
