:100000000C9434000C9449000C9449000C944B005F
:100010000C9449000C9449000C9449000C9449003C
:100020000C9449000C9449000C9449000C9449002C
:100030000C9449000C9449000C9449000C9449001C
:100040000C9449000C9449000C9449000C9449000C
:100050000C9449000C9449000C9449000C944900FC
:100060000C9449000C94490011241FBECFEFD8E036
:10007000DEBFCDBF11E0A0E0B1E0E8EDF4E002C0EA
:1000800005900D92A230B107D9F70E9473000C942D
:100090006A020C9400001F920F9200905F000F9272
:1000A00011248F939F93EF93FF93CF93DF93CDB75B
:1000B000DEB783E290E0FC018081882F90E08170C0
:1000C0009927892B19F081E0809300010000DF91CE
:1000D000CF91FF91EF919F918F910F9000925F00D0
:1000E0000F901F901895CF93DF93CDB7DEB72E9763
:1000F0000FB6F894DEBF0FBECDBF84E290E024E2DD
:1001000030E0F90120812062FC01208384E290E04C
:1001100024E230E0F90120812F7EFC01208385E27A
:1001200090E025E230E0F90120812061FC0120838C
:1001300088E690E028E630E0F90120812160FC01AA
:1001400020838BE690E02BE630E0F90120812160EE
:10015000FC012083789480910001882309F47DC0FC
:1001600085E290E025E230E0F901308120E22327AA
:10017000FC01208380E090E0A8E4B2E489839A83C4
:10018000AB83BC8320E030E04AE755E469817A81A3
:100190008B819C810E94D501DC01CB018D839E83E4
:1001A000AF83B88720E030E040E85FE36D817E8177
:1001B0008F8198850E944F0188232CF481E090E084
:1001C0009A8789873FC020E03FEF4FE757E46D8172
:1001D0007E818F8198850E94D00118164CF520E011
:1001E00030E040E251E469817A818B819C810E94F8
:1001F000D501DC01CB01BC01CD010E945401DC0121
:10020000CB019A8789870FC080E991E09C878B8713
:100210008B859C850197F1F79C878B8789859A85CB
:1002200001979A87898789859A85892B69F729C0DB
:100230006D817E818F8198850E945401DC01CB0104
:100240009A87898789859A859E878D878D859E85E2
:100250000197F1F79E878D8714C083E590E023E531
:1002600030E0F9012081217F2460FC01208383E5B7
:1002700090E023E530E0F90120812160FC0120833A
:10028000889583E290E0FC018081882F90E0807166
:100290009927892B09F05FCF109200015CCF0E9453
:1002A000830108F481E008950E94AF0188F09F5710
:1002B00098F0B92F9927B751B0F0E1F0660F771F8A
:1002C000881F991F1AF0BA95C9F714C0B13091F080
:1002D0000E94C901B1E008950C94C901672F782FDD
:1002E0008827B85F39F0B93FCCF386957795679545
:1002F000B395D9F73EF490958095709561957F4FB1
:100300008F4F9F4F0895990F0008550FAA0BE0E8F3
:10031000FEEF16161706E807F907C0F012161306C7
:10032000E407F50798F0621B730B840B950B39F407
:100330000A2661F0232B242B252B21F408950A266D
:1003400009F4A140A6958FEF811D811D089557FDE9
:100350009058440F551F59F05F3F71F04795880F33
:1003600097FB991F61F09F3F79F0879508951216CA
:1003700013061406551FF2CF4695F1DF08C0161676
:1003800017061806991FF1CF869571056105089427
:100390000895E894BB2766277727CB0197F908953E
:1003A0000E94830108F48FEF08950E94E8010C94E5
:1003B00059020E944B0238F00E94520220F095230D
:1003C00011F00C9442020C94480211240C94CA01BE
:1003D0000E94A70170F3959FC1F3950F50E0551F40
:1003E000629FF001729FBB27F00DB11D639FAA278A
:1003F000F00DB11DAA1F649F6627B00DA11D661FD9
:10040000829F2227B00DA11D621F739FB00DA11DF9
:10041000621F839FA00D611D221F749F3327A00DB3
:10042000611D231F849F600D211D822F762F6A2F4F
:1004300011249F5750409AF0F1F088234AF0EE0FB4
:10044000FF1FBB1F661F771F881F91505040A9F7E1
:100450009E3F510580F00C9442020C94CA015F3F0C
:10046000E4F3983ED4F3869577956795B795F7951D
:10047000E7959F5FC1F7FE2B880F911D9695879595
:1004800097F9089597F99F6780E870E060E0089514
:100490009FEF80EC089500240A941616170618069C
:1004A0000906089500240A94121613061406050678
:1004B0000895092E0394000C11F4882352F0BB0F09
:1004C00040F4BF2B11F460FF04C06F5F7F4F8F4F6C
:0804D0009F4F0895F894FFCF3F
:0204D800010021
:00000001FF
