:100000000C9461000C9480000C947E000C947E0093
:100010000C947E000C947E000C947E000C947E0068
:100020000C947E000C947E000C947E000C947E0058
:100030000C947E000C947E000C947E000C947E0048
:100040000C947E000C947E000C947E000C947E0038
:100050000C947E000C947E000C947E000C947E0028
:100060000C947E000C947E0008000000BE9224498F
:10007000123EABAAAA2ABECDCCCC4C3E00000080DA
:10008000BEABAAAAAA3E00000000BF000000803F4D
:100090000000000000084178D3BB4387D1133D190D
:1000A0000E3CC3BD4282AD2B3E68EC8276BED98F3A
:1000B000E1A93E4C80EFFFBE01C4FF7F3F0000007E
:1000C000000011241FBECFEFD8E0DEBFCDBF11E08E
:1000D000A0E0B1E0E4E3F3E102C005900D92AA31A3
:1000E000B107D9F721E0AAE1B1E001C01D92AB311F
:1000F000B207E1F70E94BA030C9498090C9400002F
:100100001F920F9200905F000F9211248F93CF9354
:10011000DF93CDB7DEB781E080931A010000DF9155
:10012000CF918F910F9000925F000F901F901895C4
:10013000CF93DF93CDB7DEB78CE790E02CE730E0CC
:10014000F90120812064FC0120838AE790E02AE7FE
:1001500030E0F90120812768FC0120830000DF9155
:10016000CF910895CF93DF931F92CDB7DEB78983E8
:100170008CE790E02CE730E0F9012081322F307FCE
:100180002981232BFC0120838AE790E02AE730E0D5
:10019000F90120812064FC01208300008AE790E0BF
:1001A000FC018081882F90E080749927892BB1F71A
:1001B00088E790E0FC01808191810F90DF91CF91E1
:1001C0000895CF93DF93CDB7DEB784E290E024E2C9
:1001D00030E0F90120812260FC01208381E890E079
:1001E00021E830E0F90120812260FC01208380E8D1
:1001F00090E020E830E0F90120812268FC012083B2
:1002000081E890E021E830E0F90120812861FC01DB
:10021000208386E890E02FE33CE9FC0131832083D2
:100220000000DF91CF910895CF93DF9300D0CDB739
:10023000DEB784E290E024E230E0F901208128601A
:10024000FC0120838AE290E02AE230E0F90120817B
:100250002F7DFC0120838BE290E02BE230E0F9015E
:1002600020812062FC01208389E690E029E630E0CD
:10027000F90120812260FC0120838DE390E02DE3D1
:1002800030E0F90120812160FC01208385EC90E0C1
:10029000FC01108284EC90E027E6FC01208381ECD5
:1002A00090E028E1FC01208382EC90E026E0FC0154
:1002B00020838AE590E09A83898389819A810E94CC
:1002C0006C0178940E94E1000E94980000000F9059
:1002D0000F90DF91CF910895CF93DF93CDB7DEB725
:1002E00028970FB6F894DEBF0FBECDBF98878F83D7
:1002F0008F819885092E000CAA0BBB0BBC01CD0188
:100300000E94DF04DC01CB0120E030E044E353E451
:10031000BC01CD010E943504DC01CB0120E030E0BE
:1003200040E85FE3BC01CD010E94C403DC01CB01C6
:1003300089839A83AB83BC8386E890E0FC0180814B
:1003400091810196CC01A0E0B0E0BC01CD010E94FA
:10035000DD04DC01CB0129813A814B815C81BC0148
:10036000CD010E94E405DC01CB0120E030E040EA51
:1003700051E4BC01CD010E943504DC01CB01BC017C
:10038000CD010E94AE04DC01CB019E838D8388E801
:1003900090E02D813E81FC0131832083000028966E
:1003A0000FB6F894DEBF0FBECDBFDF91CF91089599
:1003B000CF93DF93CDB7DEB762970FB6F894DEBF69
:1003C0000FBECDBF80E00E94B2009A8389838981ED
:1003D0009A81092E000CAA0BBB0BBC01CD010E9417
:1003E000DF04DC01CB019C01AD0160E070E080E83E
:1003F00094E40E943504DC01CB0120E030E040E8C9
:100400005FE3BC01CD010E94C303DC01CB0120E00E
:1004100030E44CE156E4BC01CD010E94E405DC016E
:10042000CB018B839C83AD83BE838B819C81AD810B
:10043000BE81BC01CD010E949C05DC01CB018F83F4
:100440009887A987BA8720E030E44CE156E46B81B5
:100450007C818D819E810E943504DC01CB01BC0131
:10046000CD010E949C05DC01CB0123E333E145E98A
:1004700053E4BC01CD010E94E405DC01CB018B8774
:100480009C87AD87BE8720E030E748E755E46F8161
:10049000788589859A850E943504DC01CB012FE09F
:1004A0003FEC4BE55BE3BC01CD010E94C403DC01E2
:1004B000CB019C01AD0160E070E080E89FE30E9409
:1004C0003504DC01CB0123E333E948E853E4BC0104
:1004D000CD010E94C303DC01CB018F87988BA98BD0
:1004E000BA8B8F859889A989BA89BC01CD0162969A
:1004F0000FB6F894DEBF0FBECDBFDF91CF91089548
:10050000CF93DF93CDB7DEB7C954D1090FB6F894B6
:10051000DEBF0FBECDBF80911A01882309F402C14E
:100520000E94D801DC01CB018B839C83AD83BE8309
:1005300080E00E94B20098878F838F819885092E72
:10054000000CAA0BBB0BBC01CD010E94DF04DC0137
:10055000CB0120E030E040E854E4BC01CD010E9432
:100560003504DC01CB0120E030E044E353E4BC017E
:10057000CD010E94E405DC01CB01BC01CD010E944C
:10058000A704DC01CB019A83898389819A810E9427
:100590006C0180EC90E0FC0180818823D4F486EC2F
:1005A00090E0FC018081898789858B3231F48981D3
:1005B0009A8101969A83898308C089858D3229F4AE
:1005C00089819A8101979A83898389819A810E947E
:1005D0006C018E818F938D818F938C818F938B8112
:1005E0008F938A818F9389818F9380E091E0892F07
:1005F0008F9380E091E08F93CE014896292F2F931F
:100600008F930E94AE068DB79EB70A960FB6F894E8
:10061000DEBF0FBECDBF28E830E089819A814FEF61
:10062000489FB001499F700D112444EB50E0CB016D
:10063000BA010E948606CB01F9019183808380E094
:1006400090E0AAEFB4E48A879B87AC87BD8720E05F
:1006500030E04AE753E46A857B858C859D850E945E
:10066000E405DC01CB018E879F87A88BB98B20E046
:1006700030E040E85FE36E857F85888999890E9434
:10068000300488232CF481E090E09B8B8A8B3FC060
:1006900020E03FEF4FE757E46E857F858889998991
:1006A0000E948F0518164CF520E030E040E251E43E
:1006B0006A857B858C859D850E94E405DC01CB01E4
:1006C000BC01CD010E94AE04DC01CB019B8B8A8B67
:1006D0000FC089E190E09D8B8C8B8C899D8901975F
:1006E000F1F79D8B8C8B8A899B8901979B8B8A8BD9
:1006F0008A899B89892B69F732C06E857F858889B5
:1007000099890E94AE04DC01CB019B8B8A8B8A897C
:100710009B899F8B8E8B8E899F890197F1F79F8B89
:100720008E8B1DC083E590E023E530E0F901208148
:10073000217F2460FC01208383E590E023E530E005
:10074000F90120812160FC012083889583E590E0F8
:1007500023E530E0F90120812E7FFC012083000099
:10076000C75BDF4F0FB6F894DEBF0FBECDBFDF9182
:10077000CF910895CF93DF93CDB7DEB70E941401D8
:100780000E948002FDCF5058BB27AA270E94DB039E
:100790000C9455050E94470538F00E944E0520F044
:1007A00039F49F3F19F426F40C9444050EF4E095B7
:1007B000E7FB0C943E05E92F0E94660558F3BA1733
:1007C000620773078407950720F079F4A6F50C9467
:1007D00088050EF4E0950B2EBA2FA02D0B01B90160
:1007E00090010C01CA01A0011124FF27591B99F0A7
:1007F000593F50F4503E68F11A16F040A22F232FB3
:10080000342F4427585FF3CF469537952795A79502
:10081000F0405395C9F77EF41F16BA0B620B730BA9
:10082000840BBAF09150A1F0FF0FBB1F661F771F1A
:10083000881FC2F70EC0BA0F621F731F841F48F4CF
:10084000879577956795B795F7959E3F08F0B0CF58
:100850009395880F08F09927EE0F9795879508953F
:100860000E941A0508F481E008950E9449040C943E
:1008700055050E944E0558F00E94470540F029F4A6
:100880005F3F29F00C943E0551110C9489050C949E
:1008900044050E94660568F39923B1F3552391F34B
:1008A000951B550BBB27AA2762177307840738F0DF
:1008B0009F5F5F4F220F331F441FAA1FA9F335D03C
:1008C0000E2E3AF0E0E832D091505040E695001CF0
:1008D000CAF72BD0FE2F29D0660F771F881FBB1FAA
:1008E000261737074807AB07B0E809F0BB0B802D88
:1008F000BF01FF2793585F4F3AF09E3F510578F0B4
:100900000C943E050C9489055F3FE4F3983ED4F3C4
:10091000869577956795B795F7959F5FC9F7880F87
:10092000911D9695879597F90895E1E0660F771FD9
:10093000881FBB1F621773078407BA0720F0621B6A
:10094000730B840BBA0BEE1F88F7E09508950E9495
:10095000AE046894B1110C94890508950E946E0547
:1009600088F09F5798F0B92F9927B751B0F0E1F070
:10097000660F771F881F991F1AF0BA95C9F714C020
:10098000B13091F00E948805B1E008950C9488057B
:10099000672F782F8827B85F39F0B93FCCF3869559
:1009A00077956795B395D9F73EF4909580957095B6
:1009B00061957F4F8F4F9F4F0895E89409C097FB33
:1009C0003EF490958095709561957F4F8F4F9F4F26
:1009D0009923A9F0F92F96E9BB279395F69587956A
:1009E00077956795B795F111F8CFFAF4BB0F11F42D
:1009F00060FF1BC06F5F7F4F8F4F9F4F16C08823D4
:100A000011F096E911C0772321F09EE8872F762F09
:100A100005C0662371F096E8862F70E060E02AF04A
:100A20009A95660F771F881FDAF7880F9695879536
:100A300097F90895990F0008550FAA0BE0E8FEEF0B
:100A400016161706E807F907C0F012161306E40792
:100A5000F50798F0621B730B840B950B39F40A268B
:100A600061F0232B242B252B21F408950A2609F469
:100A7000A140A6958FEF811D811D089597F99F676D
:100A800080E870E060E008959FEF80EC0895002416
:100A90000A941616170618060906089500240A94E3
:100AA00012161306140605060895092E0394000C69
:100AB00011F4882352F0BB0F40F4BF2B11F460FFF8
:100AC00004C06F5F7F4F8F4F9F4F089557FD905821
:100AD000440F551F59F05F3F71F04795880F97FB02
:100AE000991F61F09F3F79F08795089512161306BC
:100AF0001406551FF2CF4695F1DF08C016161706EB
:100B00001806991FF1CF869571056105089408951F
:100B1000E894BB2766277727CB0197F908950E94B1
:100B20001A0508F48FEF089516F00C9451060C94F2
:100B3000440568940C943E050E946E05A8F3992321
:100B4000C1F3AEF3DF93CF931F930F93FF92C92F9F
:100B5000DD2788232AF02197660F771F881FDAF791
:100B600020E030E040E85FEB9FE3883920F0803EF2
:100B700038F021968F770E94C403E8E6F0E004C0C5
:100B80000E94C403E5E9F0E00E945F068B01BE010C
:100B9000EC01FB2E6F5771097595771F880B990B28
:100BA0000E94DF0428E132E741E35FE30E94F7059A
:100BB000AF2D9801AE01FF900F911F91CF91DF9162
:100BC0000E94DB030C9455050E94F7050C94550513
:100BD0000E94470538F00E944E0520F0952311F041
:100BE0000C943E050C94440511240C9489050E9434
:100BF000660570F3959FC1F3950F50E0551F629FF6
:100C0000F001729FBB27F00DB11D639FAA27F00D65
:100C1000B11DAA1F649F6627B00DA11D661F829F8C
:100C20002227B00DA11D621F739FB00DA11D621F71
:100C3000839FA00D611D221F749F3327A00D611D8E
:100C4000231F849F600D211D822F762F6A2F112470
:100C50009F5750409AF0F1F088234AF0EE0FFF1FA3
:100C6000BB1F661F771F881F91505040A9F79E3FFA
:100C7000510580F00C943E050C9489055F3FE4F328
:100C8000983ED4F3869577956795B795F795E79550
:100C90009F5FC1F7FE2B880F911D9695879597F959
:100CA00008959F3F31F0915020F48795779567958F
:100CB000B795880F911D9695879597F90895DF93BD
:100CC000CF931F930F93FF92EF92DF927B018C01E2
:100CD000689406C0DA2EEF010E94F705FE01E89441
:100CE000A5912591359145915591A6F3EF010E946B
:100CF000DB03FE019701A801DA9469F7DF90EF901A
:100D0000FF900F911F91CF91DF91089597FB072ED0
:100D100016F4009407D077FD09D00E949A0607FCCC
:100D200005D03EF4909581959F4F089570956195FB
:100D30007F4F0895AA1BBB1B51E107C0AA1FBB1F11
:100D4000A617B70710F0A61BB70B881F991F5A9557
:100D5000A9F780959095BC01CD010895AEE0B0E073
:100D6000E4EBF6E00C946F090D891E8986E08C8314
:100D70001A8309838FEF9FE79E838D83AE01475EC1
:100D80005F4F6F89788DCE0101960E94D006EF816A
:100D9000F885E00FF11F10822E96E4E00C948B0989
:100DA000ABE0B0E0E6EDF6E00C9461096C017B018C
:100DB0008A01FC0117821682838181FFCCC1CE019A
:100DC00001963C01F6019381F70193FD859193FF14
:100DD00081917F01882309F4BAC1853239F493FDEA
:100DE000859193FF81917F01853229F4B60190E0CE
:100DF0000E94C708E7CF912C212C312CFFE1F3157D
:100E0000D8F08B3279F038F4803279F08332A1F463
:100E1000232D20611DC08D3261F0803369F4232DB4
:100E2000216016C0832D8260382EE32DE4603E2EB3
:100E30002AC0F32DF8601DC037FC2DC020ED280F0F
:100E40002A3040F08E32B9F436FC81C1232D206463
:100E5000322E19C036FE06C08AE0989E200D11245D
:100E6000922E11C0EAE02E9E200D1124222EF32D89
:100E7000F0623F2E08C08C3621F4832D8068382E16
:100E800002C0883641F4F70193FD859193FF81916B
:100E90007F018111B3CF982F9F7D9554933028F413
:100EA0000C5F1F4F9FE399830DC0833631F083376A
:100EB00071F0833509F059C021C0F8018081898320
:100EC0000E5F1F4F88248394912C530113C0280177
:100ED000F2E04F0E511CF801A080B18036FE03C035
:100EE000692D70E002C06FEF7FEFC5010E94BC0862
:100EF0004C018201F32DFF773F2E16C0280122E01E
:100F0000420E511CF801A080B18036FE03C0692D4D
:100F100070E002C06FEF7FEFC5010E94B1084C0185
:100F2000F32DF0683F2E820133FC1BC0822D90E030
:100F300088169906B0F4B60180E290E00E94C708D6
:100F40002A94F4CFF50137FC859137FE81915F013A
:100F5000B60190E00E94C70821102A9421E0821A6D
:100F600091088114910471F7E8C0843611F0893634
:100F700041F5F80137FE07C060817181828193815C
:100F80000C5F1F4F08C060817181072E000C880B19
:100F9000990B0E5F1F4FF32DFF763F2E97FF09C071
:100FA00090958095709561957F4F8F4F9F4FF0681A
:100FB0003F2E2AE030E0A3010E940309882E861804
:100FC00045C0853731F4232D2F7EB22E2AE030E044
:100FD00025C0932D997FB92E8F36C1F018F488352E
:100FE00079F0B5C0803719F0883721F0B0C0E92F0B
:100FF000E061BE2EB4FE0DC0FB2DF460BF2E09C013
:1010000034FE0AC0292F2660B22E06C028E030E048
:1010100005C020E130E002C020E132E0F801B7FE77
:1010200007C060817181828193810C5F1F4F06C070
:101030006081718180E090E00E5F1F4FA3010E94EC
:101040000309882E8618FB2DFF773F2E36FE0DC034
:10105000232D2E7FA22E891458F434FE0BC032FCAF
:1010600009C0832D8E7EA82E05C0B82CA32C03C0EA
:10107000B82C01C0B92CA4FE0FC0FE01E80DF11D73
:101080008081803321F49A2D997EA92E09C0A2FE79
:1010900006C0B394B39404C08A2D867809F0B39443
:1010A000A3FC11C0A0FE06C0B21488F4280C922C38
:1010B0009B180EC0B21460F4B60180E290E00E946A
:1010C000C708B394F7CFB21418F42B1802C0982CA9
:1010D000212CA4FE10C0B60180E390E00E94C70856
:1010E000A2FE17C0A1FC03C088E790E002C088E51B
:1010F00090E0B6010CC08A2D867859F0A1FE02C09E
:101100008BE201C080E2A7FC8DE2B60190E00E9474
:10111000C708891438F4B60180E390E00E94C7083C
:101120009A94F7CF8A94F301E80DF11D8081B601FE
:1011300090E00E94C7088110F5CF222009F442CE2A
:10114000B60180E290E00E94C7082A94F6CFF6012B
:101150008681978102C08FEF9FEF2B96E2E10C947E
:101160007D09FC010590615070400110D8F7809511
:1011700090958E0F9F1F0895FC0161507040019063
:101180000110D8F7809590958E0F9F1F08950F93AB
:101190001F93CF93DF93FB01238121FD03C08FEFCA
:1011A0009FEF2CC022FF16C04681578124813581D4
:1011B0004217530744F4A081B1819D012F5F3F4F37
:1011C000318320838C93268137812F5F3F4F378374
:1011D000268314C08B01EC01FB010084F185E02D16
:1011E0000995892BE1F6D80116968D919C91179758
:1011F000019617969C938E931697CE01DF91CF910F
:101200001F910F910895FA01AA27283051F120313A
:1012100081F1E8946F936E7F6E5F7F4F8F4F9F4F8A
:10122000AF4FB1E03ED0B4E03CD0670F781F891FCC
:101230009A1FA11D680F791F8A1F911DA11D6A0F9A
:10124000711D811D911DA11D20D009F468943F914D
:101250002AE0269F11243019305D3193DEF6CF014C
:101260000895462F4770405D4193B3E00FD0C9F712
:10127000F6CF462F4F70405D4A3318F0495D31FD7F
:101280004052419302D0A9F7EACFB4E0A6959795D2
:10129000879577956795BA95C9F7009761057105A8
:1012A00008959B01AC010A2E0694579547953795F2
:1012B0002795BA95C9F7620F731F841F951FA01D4C
:1012C00008952F923F924F925F926F927F928F92EA
:1012D0009F92AF92BF92CF92DF92EF92FF920F93C5
:1012E0001F93CF93DF93CDB7DEB7CA1BDB0B0FB6CF
:1012F000F894DEBF0FBECDBF09942A88398848888C
:101300005F846E847D848C849B84AA84B984C88421
:10131000DF80EE80FD800C811B81AA81B981CE0F18
:10132000D11D0FB6F894DEBF0FBECDBFED010895FD
:04133000F894FFCF5F
:10133400536572766F2025752C2074656D70657207
:0A13440061747572652025750000C4
:00000001FF
