S00D00007765656B342E7372656337
S11300000C9434000C943E000C943E000C943E007E
S11300100C943E000C943E000C943E000C943E0064
S11300200C943E000C943E000C943E000C943E0054
S11300300C943E000C943E000C943E000C943E0044
S11300400C943E000C943E000C943E000C943E0034
S11300500C943E000C943E000C943E000C943E0024
S11300600C943E000C943E0011241FBECFEFD8E048
S1130070DEBFCDBF0E947A000C94AB000C9400004C
S1130080CF93DF9300D000D000D0CDB7DEB79E83EE
S11300908D831A8219821DC088EE93E09C838B8322
S11300A08B819C8122E330E0B9010E948300CB0163
S11300B09C838B838B819C8103979C838B838B8113
S11300C09C8101969C838B8389819A8101969A8372
S11300D0898329813A818D819E8128173907E4F229
S11300E0000026960FB6F894DEBF0FBECDBFDF9199
S11300F0CF910895CF93DF93CDB7DEB788EE93E029
S11301000E944000FBCF97FB072E16F4009407D003
S113011077FD09D00E94970007FC05D03EF4909526
S113012081959F4F0895709561957F4F0895AA1BFF
S1130130BB1B51E107C0AA1FBB1FA617B70710F0CE
S1130140A61BB70B881F991F5A95A9F78095909500
S10D0150BC01CD010895F894FFCF1F
S9030000FC
