:100000000C9434000C9440000C943E000C943E0080
:100010000C943E000C943E000C943E000C943E0068
:100020000C943E000C943E000C943E000C943E0058
:100030000C943E000C943E000C943E000C943E0048
:100040000C943E000C943E000C943E000C943E0038
:100050000C943E000C943E000C943E000C943E0028
:100060000C943E000C943E0011241FBECFEFD8E04C
:10007000DEBFCDBF0E9478000C9499000C94000064
:100080001F920F9200905F000F9211242F933F93C5
:100090004F938F939F93EF93FF93CF93DF93CDB7BE
:1000A000DEB785E290E023E230E0F9012081422FC3
:1000B0004F7023E230E0F9012081222F30E02295B9
:1000C0003295307F3227207F3227242BFC0120837A
:1000D0000000DF91CF91FF91EF919F918F914F9110
:1000E0003F912F910F9000925F000F901F901895F5
:1000F000CF93DF9300D0CDB7DEB78DE390E021E062
:10010000FC01208389E690E022E0FC01208384E268
:1001100090E020EFFC01208385E290E0FC0110825A
:1001200088E690E024E0FC01208378941A8219820A
:06013000FDCFF894FFCFA3
:00000001FF
