:100000000C9434000C943E000C943E000C943E0082
:100010000C943E000C943E000C943E000C943E0068
:100020000C943E000C943E000C943E000C943E0058
:100030000C943E000C943E000C943E000C943E0048
:100040000C943E000C943E000C943E000C943E0038
:100050000C943E000C943E000C943E000C943E0028
:100060000C943E000C943E0011241FBECFEFD8E04C
:10007000DEBFCDBF0E947A000C9483000C94000078
:10008000CF93DF9300D000D000D0CDB7DEB79E83F2
:100090008D831A8219821DC081E090E09C838B833E
:1000A0008B819C8101979C838B838B819C810197A1
:1000B0009C838B838B819C8101969C838B838B811A
:1000C0009C8101969C838B8389819A8101969A8376
:1000D000898329813A818D819E8128173907E4F22D
:1000E000000026960FB6F894DEBF0FBECDBFDF919D
:1000F000CF910895CF93DF93CDB7DEB788EE93E02D
:0A0100000E944000FBCFF894FFCFEF
:00000001FF
