S00F00004861726B6B61372E737265638C
S11300000C9434000C9449000C9449000C9449005D
S11300100C9449000C9449000C9449000C94490038
S11300200C9449000C9449000C9449000C94490028
S11300300C9449000C9449000C9449000C94490018
S11300400C9465000C9449000C9449000C944900EC
S11300500C9449000C9449000C9449000C944900F8
S11300600C9449000C94490011241FBECFEFD8E032
S1130070DEBFCDBF11E0A0E0B1E0ECE4F1E002C0EE
S113008005900D92AA30B107D9F70E9499000C94FB
S1130090A4000C940000CF93DF93CDB7DEB785E4C2
S11300A090E025E430E0F90120812160FC01208307
S11300B08EE690E02EE630E0F90120812160FC011B
S11300C020830000DF91CF9108951F920F9200903A
S11300D05F000F9211242F938F939F93AF93BF933D
S11300E0EF93FF93CF93DF93CDB7DEB72A97DEBFAD
S11300F0CDBF2AE0E0E0F1E0CE010196DC01019001
S11301000D922A95E1F700002A960FB6F894DEBF07
S11301100FBECDBFDF91CF91FF91EF91BF91AF9112
S11301209F918F912F910F9000925F000F901F90DD
S11301301895CF93DF9300D0CDB7DEB70E944B0064
S10F014078941A821982FDCFF894FFCF46
S10D014C49276D20686572652100E3
S9030000FC
