:100000000C9434000C9446000C9446000C9446006A
:100010000C9446000C9446000C9446000C94460048
:100020000C9446000C9405010C9446000C94460078
:100030000C9446000C9446000C9446000C94460028
:100040000C9446000C9446000C9446000C94460018
:100050000C9446000C9446000C9446000C94460008
:100060000C9446000C94460011241FBECFEFD8E03C
:10007000DEBFCDBF21E0A0E0B1E001C01D92A531FF
:10008000B207E1F70E9450020C945B020C9400004E
:10009000CF93DF93CDB7DEB781EB90E021EB30E07B
:1000A000F90120812260FC01208380E790E020E7B5
:1000B00030E0F90120812160FC0120837894000068
:1000C000DF91CF910895CF93DF9300D0CDB7DEB706
:1000D0001A8219828FC029813A81C901880F991F1C
:1000E000820F931F880F991F8D5F9E4FFC018081A7
:1000F000882309F47AC029813A81C901880F991FA0
:10010000820F931F880F991F8C5F9E4FFC01808187
:100110009181892B09F04AC029813A81C901880F50
:10012000991F820F931F880F991F885F9E4FFC01B4
:1001300080818F5F482F29813A81C901880F991FDB
:10014000820F931F880F991F885F9E4FFC01408389
:1001500029813A81C901880F991F820F931F880F47
:10016000991F8A5F9E4FFC0180819181892BE9F163
:1001700029813A81C901880F991F820F931F880F27
:10018000991F8A5F9E4FFC0180819181AC0129817A
:100190003A81C901880F991F820F931F880F991FF9
:1001A0008C5F9E4FFC01518340831FC029813A819F
:1001B000C901880F991F820F931F880F991F8C5FA9
:1001C0009E4FFC0180819181AC01415051092981F0
:1001D0003A81C901880F991F820F931F880F991FB9
:1001E0008C5F9E4FFC015183408389819A810196E7
:1001F0009A83898389819A8103970CF46CCF0000DC
:100200000F900F90DF91CF9108951F920F92009061
:100210005F000F9211242F933F934F935F936F933F
:100220007F938F939F93AF93BF93EF93FF93CF935E
:10023000DF93CDB7DEB780910001909101019C0161
:100240002F5F3F4F3093010120930001C19730F0A1
:100250000E94630010920101109200010000DF91E2
:10026000CF91FF91EF91BF91AF919F918F917F912E
:100270006F915F914F913F912F910F9000925F008E
:100280000F901F901895CF93DF9300D000D000D02F
:10029000CDB7DEB789836A835C834B833E832D832E
:1002A0008981282F30E0C901880F991F820F931F81
:1002B000880F991F8D5F9E4F2A81FC0120838981C1
:1002C000282F30E0C901880F991F820F931F880FD4
:1002D000991F8C5F9E4F2B813C81FC0131832083D1
:1002E0008981282F30E04D815E81C901880F991FD7
:1002F000820F931F880F991F8A5F9E4FFC015183C5
:100300004083000026960FB6F894DEBF0FBECDBF27
:10031000DF91CF910895CF93DF93CDB7DEB7809172
:1003200002018F5F8093020180910201882F90E08B
:1003300081709927892B51F085E290E025E230E029
:10034000F90120812160FC01208309C085E290E051
:1003500025E230E0F90120812E7FFC01208300009E
:10036000DF91CF910895CF93DF9300D0CDB7DEB763
:1003700084E290E02FEFFC01208384E290E024E20D
:1003800030E0F90120812062FC0120831A82198269
:1003900012C029813A81C901880F991F820F931FCA
:1003A000880F991F8D5F9E4FFC01108289819A8171
:1003B00001969A83898389819A81039754F329E06E
:1003C00030E041E050E061E080E00E944301000045
:1003D0000F900F90DF91CF910895CF93DF9300D0CE
:1003E000CDB7DEB71A82198250C029813A81C9017E
:1003F000880F991F820F931F880F991F8D5F9E4F43
:10040000FC0180818823E1F129813A81C901880FAB
:10041000991F820F931F880F991F885F9E4FFC01C1
:10042000808118166CF529813A81C901880F991FBE
:10043000820F931F880F991F8D5F9E4FFC01808153
:10044000813011F40E948B0129813A81C901880F02
:10045000991F820F931F880F991F885F9E4FFC0181
:1004600080818150482F29813A81C901880F991FC5
:10047000820F931F880F991F885F9E4FFC01408356
:1004800089819A8101969A83898389819A810397C8
:100490000CF4ABCF00000F900F90DF91CF91089537
:1004A000CF93DF93CDB7DEB70E94B3010E9448001F
:0A04B0000E94ED01FDCFF894FFCF8C
:00000001FF
